:020000040800F2
:10000000400B002091020008990200089B020008A2
:100010009D0200089F020008A102000800000000E5
:10002000000000000000000000000000A302000823
:10003000A502000800000000A7020008490200080D
:10004000AB020008AB020008AB020008AB020008DC
:10005000AB020008AB020008AB020008AB020008CC
:10006000AB020008AB020008AB020008AB020008BC
:10007000AB020008AB020008AB020008AB020008AC
:10008000AB020008AB020008AB020008AB0200089C
:10009000AB020008AB020008AB020008AB0200088C
:1000A000AB020008AB020008AB020008AB0200087C
:1000B000AB020008AB020008AB020008AB0200086C
:1000C000AB020008AB020008AB020008AB0200085C
:1000D000AB020008AB020008AB020008AB0200084C
:1000E000AB020008AB020008AB020008AB0200083C
:1000F000AB020008AB020008AB020008AB0200082C
:10010000AB020008AB020008AB020008AB0200081B
:10011000AB020008AB020008AB020008AB0200080B
:10012000AB020008AB020008AB020008AB020008FB
:10013000AB0200080000000000000000AB02000855
:10014000AB020008AB020008AB020008AB020008DB
:10015000AB020008AB020008AB020008AB020008CB
:10016000AB020008AB020008AB020008AB020008BB
:10017000AB020008AB020008AB0200080000000060
:1001800000000000AB0200080000000000000000BA
:10019000AB0200080000000000000000AB020008F5
:1001A000000000000000000000000000AB0200089A
:1001B000AB020008AB020008AB020008AB0200086B
:1001C000AB02000800F002F800F02EF80AA090E858
:1001D000000C82448344AAF10107DA4501D100F002
:1001E00023F8AFF2090EBAE80F0013F0010F18BFA1
:1001F000FB1A43F001031847DC020000EC02000088
:100200000023002400250026103A28BF78C1FBD81F
:10021000520728BF30C148BF0B6070471FB500F0C0
:100220004BF91FBD10B510BD00F055F81146FFF792
:10023000F5FF00F0C1F800F073F803B4FFF7F2FF28
:1002400003BC00F07BF8000072B62DE9F00F0F48F8
:100250000168C1F800D001B500F00EF9BDE8014019
:10026000D1F800D0BDE8F00F62B6704707480268C9
:10027000D2F800D0BDE8F00F0FBC5DF804CB01B0A0
:100280005DF804EB01B062B6704700002405002061
:100290000948804709480047FEE7FEE7FEE7FEE71A
:1002A000FEE7FEE7FEE7FEE7FEE7FEE70448054956
:1002B000054A064B7047000079030008C501000895
:1002C00040050020400B0020400700204007002090
:1002D000704770477047754600F02CF8AE46050031
:1002E0006946534620F00700854618B020B5FFF751
:1002F000DDFFBDE820404FF000064FF000074FF053
:1003000000084FF0000BAC46ACE8C009ACE8C009EF
:10031000ACE8C009ACE8C00921F007018D46704780
:1003200010B50446AFF300802046BDE81040FFF74B
:1003300084BF0000004870470000002001491820D9
:10034000ABBEFEE7260002007047000043F6300017
:10035000C4F20200016841F00401016040F60000AF
:10036000C4F20200016841F480310160416941F446
:1003700080714161704700004EF68850CEF2000057
:10038000016841F4700101607047000040F26802AA
:10039000C2F200024FF4C87300FB032240F228535C
:1003A00002F5A87CC2F2000343F830C04FF0807021
:1003B000C2E962107047000080B5FFF7C7FF40F246
:1003C0008940C0F6000000F011F840F29940C0F6F4
:1003D000000000F00BF840F2A940C0F6000000F069
:1003E00005F80A2000F02AF8002080BDB0B540F2E0
:1003F0006005C2F200052968032904BF0020B0BDD2
:1004000072B62C6801462046FFF7C0FF286840F20C
:100410002851C2F2000101EBC0021CB142F8042CC9
:10042000516005E040F22451C2F2000152600A60BE
:100430000130286062B60120B0BD000040F26401C6
:10044000C2F200014FF47A5272B60A604EF2100204
:10045000CEF200020023136093600968484301381C
:100460005060D2F8100DE02161F31F60C2F8100D4A
:1004700007201060FFF7FABE40F22450C2F20000DD
:10048000016849680160704740F21850C2F20000EC
:10049000016801310160FBE740F21C50C2F200002C
:1004A000016801310160FBE740F22050C2F2000018
:1004B000016801310160FBE7F1EE100A4FF6FF71B0
:1004C000C0F2C03120EA010040F04070E1EE100AB5
:1004D00070470000E404000800000020400B00000A
:0404E000000200080E
:04000005080002915C
:00000001FF
