:020000040800F2
:10000000D80C002091020008990200089B02000809
:100010009D0200089F020008A102000800000000E5
:10002000000000000000000000000000A302000823
:10003000A502000800000000A7020008490200080D
:10004000AB020008AB020008AB020008AB020008DC
:10005000AB020008AB020008AB020008AB020008CC
:10006000AB020008AB020008AB020008AB020008BC
:10007000AB020008AB020008AB020008AB020008AC
:10008000AB020008AB020008AB020008AB0200089C
:10009000AB020008AB020008AB020008AB0200088C
:1000A000AB020008AB020008AB020008AB0200087C
:1000B000AB020008AB020008AB020008AB0200086C
:1000C000AB020008AB020008AB020008AB0200085C
:1000D000AB020008AB020008AB020008AB0200084C
:1000E000AB020008AB020008AB020008AB0200083C
:1000F000AB020008AB020008AB020008AB0200082C
:10010000AB020008AB020008AB020008AB0200081B
:10011000AB020008AB020008AB020008AB0200080B
:10012000AB020008AB020008AB020008AB020008FB
:10013000AB0200080000000000000000AB02000855
:10014000AB020008AB020008AB020008AB020008DB
:10015000AB020008AB020008AB020008AB020008CB
:10016000AB020008AB020008AB020008AB020008BB
:10017000AB020008AB020008AB0200080000000060
:1001800000000000AB0200080000000000000000BA
:10019000AB0200080000000000000000AB020008F5
:1001A000000000000000000000000000AB0200089A
:1001B000AB020008AB020008AB020008AB0200086B
:1001C000AB02000800F002F800F02EF80AA090E858
:1001D000000C82448344AAF10107DA4501D100F002
:1001E00023F8AFF2090EBAE80F0013F0010F18BFA1
:1001F000FB1A43F00103184768030000780300006E
:100200000023002400250026103A28BF78C1FBD81F
:10021000520728BF30C148BF0B6070471FB500F0C0
:1002200092F91FBD10B510BD00F055F81146FFF74B
:10023000F5FF00F0E5F800F073F803B4FFF7F2FF04
:1002400003BC00F07BF8000072B62DE9F00F0F48F8
:100250000168C1F800D001B500F042F9BDE80140E5
:10026000D1F800D0BDE8F00F62B6704707480268C9
:10027000D2F800D0BDE8F00F0FBC5DF804CB01B0A0
:100280005DF804EB01B062B670470000B4060020D0
:100290000948804709480047FEE7FEE7FEE7FEE71A
:1002A000FEE7FEE7FEE7FEE7FEE7FEE70448054956
:1002B000054A064B70470000C1030008C50100084D
:1002C000D8060020D80C0020D8080020D80800202C
:1002D000704770477047754600F02CF8AE46050031
:1002E0006946534620F00700854618B020B5FFF751
:1002F000DDFFBDE820404FF000064FF000074FF053
:1003000000084FF0000BAC46ACE8C009ACE8C009EF
:10031000ACE8C009ACE8C00921F007018D46704780
:1003200010B50446AFF300802046BDE81040FFF74B
:1003300084BF0000004870470000002001491820D9
:10034000ABBEFEE7260002007047000043F6300017
:10035000C4F20200016841F00401016040F60000AF
:10036000C4F20200016841F480310160704700006E
:1003700040F61400C4F20200016881F4807101604B
:10038000704700004EF21000CEF20000016841F00C
:1003900004010160704700004EF21001CEF200012E
:1003A0004860086840F00100086070474EF2100095
:1003B000CEF20000016841F00201016070470000C8
:1003C0004EF68850CEF20000016841F470010160E1
:1003D0007047000040F26802C2F200024FF4C87396
:1003E00000FB032240F2B86302F5A87CC2F20003CE
:1003F00043F830C04FF08070C2E9621070470000CF
:1004000080B5FFF7A3FF40F20D50C0F6000000F0EA
:1004100017F840F21D50C0F6000000F011F840F24D
:100420002D50C0F6000000F00BF840F23D50C0F631
:10043000000000F005F800F02BF8002080BD00005F
:10044000B0B540F26005C2F200052968042904BF76
:100450000020B0BD72B62C6801462046FFF7BAFFF7
:10046000286840F2B861C2F2000101EBC0021CB181
:1004700042F8042C516005E040F2B461C2F2000180
:1004800052600A600130286062B60120B0BD0000F1
:1004900010B540F26000C2F200000068002808BFFA
:1004A00010BD40F26404C2F200044FF47A5072B6F8
:1004B00020604EF62050CEF200000168E02262F388
:1004C0001F610160FFF75EFFFFF770FF2068FA21F0
:1004D00048430138FFF760FFBDE81040FFF7C6BE94
:1004E00040F2B460C2F200000168496801607047E0
:1004F0004EF21800CEF20000002101604EF60450CA
:10050000CEF200004FF080610160704740F2A860B9
:10051000C2F20000016801310160FBE740F2AC600B
:10052000C2F20000016801310160FBE740F2B060F7
:10053000C2F20000016801310160FBE7FFF718FF1C
:10054000FFF7D6FFFAE7F1EE100A4FF6FF71C0F29F
:10055000C03120EA010040F04070E1EE100A70471F
:100560007005000800000020D80C00000002000800
:04000005080002915C
:00000001FF
