S011000053746F7057617463682E7372656376
S11300000C942A000C943F000C943F000C943F0085
S11300100C943F000C943F000C943F000C943F0060
S11300200C943F000C943F000C943F000C943F0050
S11300300C943F000C943F000C943F000C943F0040
S11300400C943F000C943F000C943F000C943F0030
S11300500C943F0011241FBECFE5D8E0DEBFCDBF16
S113006010E0A0E6B0E0ECE7F1E002C005900D92EC
S1130070AA36B107D9F70E9499000C94BC000C94DD
S11300800000CF93DF93CDB7DEB72A970FB6F8946D
S1130090DEBF0FBECDBF9AE0E0E6F0E0DE011196D0
S11300A001900D929A95E1F79DEC899F912D112471
S11300B0292F269526952695220F322F330F330F9D
S11300C0230F821B282F96959695969585B38F7747
S11300D085BB85B3806485BBE1E0F0E0EC0FFD1FD8
S11300E0E20FF11D8081880F8BBBEFECF7E03197B5
S11300F0F1F700C0000085B38F7B85BB85B38068B2
S113010085BBE1E0F0E0EC0FFD1FE90FF11D8081FC
S1130110880F8BBB8FEC97E00197F1F700C00000CC
S11301202A960FB6F894DEBF0FBECDBFDF91CF91F4
S113013008958FEF8ABB84BB11BA8EE10E944100FF
S113014000E01EE116C0812F0E944100929907C071
S1130150011106C0812F0E94410001E009C000E0A6
S1130160219602C0C0E0D0E0C43F81E0D80758F334
S10F017011501123BCF7E5CFF894FFCF29
S10D017C3F065B4F666D7D077F6F41
S9030000FC
