S019000055415254206D696E692070726F6A6563742E73726563EB
S11300000C942A000C9447000C9447000C9447006D
S11300100C9447000C9447000C9447000C94470040
S11300200C9447000C9447000C9447000C94470030
S11300300C9447000C9447000C9447000C94470020
S11300400C9447000C9447000C9447000C94470010
S11300500C94470011241FBECFE5D8E0DEBFCDBF0E
S113006011E0A0E6B0E0EAE3F8E002C005900D92EA
S1130070A233B107D9F721E0A2E3B1E001C01D9298
S1130080AE35B207E1F70E947C030C941B040C9478
S11300900000982F96959695969587706130C1F5D6
S11300A0913091F028F09230D9F0933029F10895ED
S11300B04BB321E030E0B90102C0660F771F8A9587
S11300C0E2F7CB01842B3AC048B321E030E0B90118
S11300D002C0660F771F8A95E2F7CB01842B3CC0E0
S11300E045B321E030E0B90102C0660F771F8A955D
S11300F0E2F7CB01842B3EC042B321E030E0B901EA
S113010002C0660F771F8A95E2F7CB01842B40C0AB
S113011061113FC09130A1F028F09230F9F0933092
S113012059F108954BB321E030E0B90102C0660FE4
S1130130771F8A95E2F7CB01809584238BBB0895C2
S113014048B321E030E0B90102C0660F771F8A95F9
S1130150E2F7CB018095842388BB089545B321E061
S113016030E0B90102C0660F771F8A95E2F7CB0130
S11301708095842385BB089542B321E030E0B90122
S113018002C0660F771F8A95E2F7CB01809584231E
S113019082BB0895EAEFF0E040E081E090E0519105
S11301A0342F369536953695242F2770513009F41F
S11301B044C020F0523009F474C0B7C0323001F1A9
S11301C0333061F1313071F05AB3BC0102C0660FB3
S11301D0771F2A95E2F79B01352F322B3ABB3BB3AD
S11301E020953EC057B3BC0102C0660F771F2A9505
S11301F0E2F79B01352F322B37BB38B320953FC034
S113020054B3BC0102C0660F771F2A95E2F79B0125
S1130210352F322B34BB35B3209540C051B3BC01CC
S113022002C0660F771F2A95E2F79B01352F322B08
S113023031BB32B32095232377C0323011F13330F0
S113024001F1313079F05AB3BC0102C0660F771F57
S11302502A95E2F79B012095352F32233ABB3BB315
S1130260232333C057B3BC0102C0660F771F2A95FE
S1130270E2F79B012095352F322337BB38B3232374
S113028034C054B3BC0102C0660F771F2A95E2F74D
S11302909B012095352F322334BB35B3232325BB53
S11302A044C0323021F1333089F1313081F05AB316
S11302B0BC0102C0660F771F2A95E2F79B01362F17
S11302C0309535233ABB3BB3232B2BBB2EC057B3FE
S11302D0BC0102C0660F771F2A95E2F79B01362FF7
S11302E03095352337BB38B3232B28BB1EC054B3FA
S11302F0BC0102C0660F771F2A95E2F79B01362FD7
S11303003095352334BB35B3232BC9CF51B3BC014E
S113031002C0660F771F2A95E2F79B01362F3095AE
S1130320352331BB32B3232B22BB4F5F403209F05C
S113033036CF0895CF93C82F61E081E00E94490031
S11303406C2F661F6627661F86E00E944900C6FB65
S1130350662760F985E00E944900C5FB662760F9BD
S113036084E00E944900C4FB662760F983E00E9490
S1130370490061E082E00E9449008FEC97E0019718
S1130380F1F700C0000060E082E00E9449008FECB9
S113039097E00197F1F700C00000C3FB662760F9FE
S11303A086E00E944900C2FB662760F985E00E944E
S11303B04900C1FB662760F984E00E9449006C2F64
S11303C0617083E00E94490061E082E00E9449007C
S11303D08FEC97E00197F1F700C0000060E082E045
S11303E00E9449008FEC97E00197F1F700C00000EC
S11303F0CF910895CF93C82F60E081E00E94490017
S11304006C2F661F6627661F86E00E944900C6FBA4
S1130410662760F985E00E944900C5FB662760F9FC
S113042084E00E944900C4FB662760F983E00E94CF
S1130430490061E082E00E9449008FEC97E0019757
S1130440F1F700C0000060E082E00E9449008FECF8
S113045097E00197F1F700C00000C3FB662760F93D
S113046086E00E944900C2FB662760F985E00E948D
S11304704900C1FB662760F984E00E9449006C2FA3
S1130480617083E00E94490061E082E00E944900BB
S11304908FEC97E00197F1F700C0000060E082E084
S11304A00E9449008FEC97E00197F1F700C000002B
S11304B0CF9108952FEB8AED90E021508040904039
S11304C0E1F700C0000082E00E94FA0188E20E9485
S11304D0FA018CE00E94FA0181E00E94FA018FEC9B
S11304E097E00197F1F700C0000086E00C94FA0150
S11304F00C949A010F931F93CF938C01C0E0F801E1
S1130500EC0FF11D8081882321F00E949A01CF5FB6
S1130510F6CFCF911F910F910895811102C080E809
S113052003C0813021F480EC860F0C94FA01089505
S1130530AD9A0895AD9808958830910560F458B344
S113054021E030E0B90102C0660F771F8A95E2F717
S1130550CB01852B88BB08958830910568F448B396
S113056021E030E0B90102C0660F771F8A95E2F7F7
S1130570CB018095842388BB08958130910511F4C3
S1130580AC9A0895029709F4AB9A089581309105C5
S113059011F4AC980895029709F4AB980895EF927A
S11305A0FF921F93CF93DF93CDB7DEB764970FB657
S11305B0F894DEBF0FBECDBF7C0160E080E00E94F6
S11305C08D02E114F10421F480E30E94780225C035
S11305D010E02AE030E0E1E0F0E0EC0FFD1FE10F75
S11305E0F11DC701B9010E940704805D80837B016E
S11305F081E0810F672B11F0182FEDCF17FD0DC08F
S1130600E1E0F0E0EC0FFD1FE10FF11D17FDFA959D
S113061080810E9478021150F1CF8AE191E06496C2
S11306200FB6F894DEBF0FBECDBFDF91CF911F91FF
S1130630FF90EF900C947A02CF93DF93EC01DA01F0
S113064011961C921E9280E021E0FE01E80FF11D3C
S11306509081992331F0903211F4209333018F5F0C
S1130660F4CF80913301882361F1492F50E09E013A
S1130670240F351FF9018081FA01E60FF71F9F5FF0
S1130680803211F08083F1CF10824AE0FE01E90F3D
S1130690F11D80818823A9F06D917C911197469F6B
S11306A09001479F300D112411963C932E93808125
S11306B020533109280F311D11963C932E939F5FCF
S11306C0E5CFDF91CF910895AC0190E0E92FF0E000
S11306D0DA01AE0FBF1F2C91E60FF71F222329F07A
S11306E08081281307C09F5FF1CF30813111F8CF8B
S11306F081E0089580E008950E94CA000E94DB030F
S11307000E945A0260E080E00E948D0211E08AE4B7
S113071091E00E94E50344E351E066E371E08AE47A
S113072091E00E941C038091330160E081110CC0B0
S113073081E00E948D0286E291E00E947A028DE1BE
S113074091E00E947A02E3CF81E00E948D0286E369
S113075091E00E947A028EE191E00E947A02C0E662
S1130760D0E0BE0186E391E00E946403882349F04F
S1130770EC89FD898091340190913501099510939C
S11307803201669680E0CA3FD80759F7809132015A
S113079081110CC060E081E00E948D0286E291E04C
S11307A00E947A028DE191E00E947A021092320155
S11307B010923301ACCF83E389B95998539A549A70
S11307C008955F9BFECF8CB10895EF92FF920F9333
S11307D01F93CF938C010E94E103F8018083C0E052
S11307E0F801EC0FF11D80818A3049F0CF5F780168
S11307F0EC0EF11C0E94E103F7018083F1CF3197E5
S11308001082CF911F910F91FF90EF900895AA1B32
S1130810BB1B51E107C0AA1FBB1FA617B70710F0E7
S1130820A61BB70B881F991F5A95A9F78095909519
S10D0830BC01CD010895F894FFCF38
S113083A4C65644F6E0000000000000000000000D8
S113084A000000009C024C65644F666600000000CC
S113085A00000000000000000000AC0242757A7A31
S113086A65724F6E000000000000000000000000E6
S113087A980242757A7A65724F6666000000000033
S113088A0000000000009A0252656C61794F6E0004
S113089A000000000000000000000000BD025265D4
S11308AA6C61794F666600000000000000000000D9
S11308BA0000C6024C434477726974650000000064
S11308CA0000000000000000CF0200000000000049
S11308DA000000000000000000000000000000000A
S11308EA0000010002020000010020202020202034
S11308FA20202020200057726F6E6720496E707581
S105090A740073
S9030000FC
