:100000000C942A000C943F000C943F000C943F0089
:100010000C943F000C943F000C943F000C943F0064
:100020000C943F000C943F000C943F000C943F0054
:100030000C943F000C943F000C943F000C943F0044
:100040000C943F000C943F000C943F000C943F0034
:100050000C943F0011241FBECFE5D8E0DEBFCDBF1A
:1000600010E0A0E6B0E0E8E9F2E002C005900D92F1
:10007000AC36B107D9F70E94F0000C944A010C94F9
:100080000000CF93DF93CDB7DEB72A970FB6F89471
:10009000DEBF0FBECDBF9AE0E1E6F0E0DE011196D3
:1000A00001900D929A95E1F7AF98AE9A6AE00E949E
:1000B0003E01E1E0F0E0EC0FFD1FE90FF11D908142
:1000C000990F9BBBEFECF7E03197F1F700C0000010
:1000D000AE98AF9AE1E0F0E0EC0FFD1FE80FF11DE4
:1000E0008081880F8BBB8FEC97E00197F1F700C000
:1000F00000002A960FB6F894DEBF0FBECDBFDF9189
:10010000CF910895CF93DF9383990DC0839BFECF4A
:10011000EC0180916000888388810E94410082996F
:10012000FBCF829BFECFDF91CF910895CF93DF93DA
:10013000EC01829915C0829BFECF88810E9441000C
:10014000829904C0829BFECF80E001C081E0839948
:1001500005C0839BFECF9091600098838111EDCF05
:10016000DF91CF9108951F93CF93DF93EC018881A6
:100170000E944100829917C011E082992DC08881A8
:100180008F5F88832FEF81EE94E021508040904074
:10019000E1F700C0000088810E9441008881833619
:1001A00061F71883EACF839917C013E6839914C0C7
:1001B0008881815088832FEF81EE94E02150804028
:1001C0009040E1F700C0000088810E9441008881D2
:1001D0008111ECCF1883EACFDF91CF911F91089561
:1001E000CF93DF931F92CDB7DEB78FEF8ABB84BB6F
:1001F00011BA10E0849904C0849902C011E0FCCFC8
:100200001130A9F5809160008983898187FD13C031
:1002100004EF11E089810E944100CE0101960E9405
:100220008200CE0101960E9496000150110991F7BB
:1002300089818150E9CF81E011E08823D9F280E003
:100240000E944100AD9A849906C0849BFECFAD9870
:1002500080E010E001C081E08399EFCF839BFECF67
:10026000CE0101960E948200AD9880E0E5CF111189
:10027000C1CF80E690E00E94B300BCCF991B79E02B
:1002800004C0991F961708F0961B881F7A95C9F726
:0802900080950895F894FFCF5A
:0C0298001E3F065B4F666D7D077F6F0008
:00000001FF
