:100000000C942A000C943F000C943F000C943F0089
:100010000C943F000C943F000C943F000C943F0064
:100020000C943F000C943F000C943F000C943F0054
:100030000C943F000C943F000C943F000C943F0044
:100040000C943F000C943F000C943F000C943F0034
:100050000C943F0011241FBECFE5D8E0DEBFCDBF1A
:1000600010E0A0E6B0E0E0EFF7E002C005900D92EE
:10007000AE38B107D9F70E9479030C94F6030C94BB
:100080000000982F96959695969587706130C9F0E7
:10009000611116C0913009F448C0C8F19230E1F006
:1000A000933009F0089542B321E030E0B90102C075
:1000B000660F771F8A95E2F7CB018095842382BB78
:1000C0000895913009F43FC0A8F0923009F455C06A
:1000D000933009F445C0089545B321E030E0B901FB
:1000E00002C0660F771F8A95E2F7CB0180958423C3
:1000F00085BB08954BB321E030E0B90102C0660F23
:10010000771F8A95E2F7CB01842B8BBB08954BB305
:1001100021E030E0B90102C0660F771F8A95E2F74F
:10012000CB01809584238BBB089548B321E030E058
:10013000B90102C0660F771F8A95E2F7CB0180955F
:10014000842388BB089548B321E030E0B90102C0A0
:10015000660F771F8A95E2F7CB01842B88BB089541
:1001600042B321E030E0B90102C0660F771F8A95E3
:10017000E2F7CB01842B82BB089545B321E030E048
:10018000B90102C0660F771F8A95E2F7CB01842B75
:1001900085BB0895E0E6F0E080E041E050E01FC05C
:1001A0009130F0F19230C1F4223009F4AAC023302A
:1001B00009F497C0213009F4B4C09AB3BA0102C05F
:1001C000660F771F3A95E2F79B01362F3095932300
:1001D0009ABB9BB3292B2BBB8F5F803201F191918E
:1001E000282F269526952695382F37709130C1F601
:1001F000223061F1233051F12130B9F19AB3BA01C3
:1002000002C0660F771F3A95E2F79B012095922373
:100210009ABB9BB329232BBB8F5F803201F70895D4
:10022000223009F44FC02330F1F1213069F19AB343
:10023000BA0102C0660F771F3A95E2F79B01962B31
:100240009ABB9BB3209529232BBBC6CF94B3BA018D
:1002500002C0660F771F3A95E2F79B012095922323
:1002600094BB95B3292325BBB7CF97B3BA0102C07E
:10027000660F771F3A95E2F79B012095922397BB73
:1002800098B3292328BBA8CF97B3BA0102C0660F41
:10029000771F3A95E2F79B01962B97BB98B3209571
:1002A000292328BB99CF91B3BA0102C0660F771FEB
:1002B0003A95E2F79B01962B91BB92B320952923A7
:1002C00022BB8ACF94B3BA0102C0660F771F3A955A
:1002D000E2F79B01962B94BB95B32095292325BB70
:1002E0007BCF91B3BA0102C0660F771F3A95E2F750
:1002F0009B01362F3095932391BB92B3292B22BBC0
:100300006BCF94B3BA0102C0660F771F3A95E2F73C
:100310009B01362F3095932394BB95B3292B25BB96
:100320005BCF97B3BA0102C0660F771F3A95E2F729
:100330009B01362F3095932397BB98B3292B28BB6D
:100340004BCFE199FECF7FBB6EBB8DBBE29AE19AAA
:100350000895E199FECF7FBB6EBBE09A2DB3FC01FF
:1003600020830895CF93C82F61E081E00E9441006F
:100370006C2F661F6627661F86E00E944100C6FB41
:10038000662760F985E00E944100C5FB662760F999
:1003900084E00E944100C4FB662760F983E00E946C
:1003A000410061E082E00E9441008FEC97E00197FC
:1003B000F1F700C0000060E082E00E9441008FEC95
:1003C00097E00197F1F700C00000C3FB662760F9D2
:1003D00086E00E944100C2FB662760F985E00E942A
:1003E0004100C1FB662760F984E00E9441006C2F48
:1003F000617083E00E94410061E082E00E94410060
:100400008FEC97E00197F1F700C0000060E082E018
:100410000E9441008FEC97E00197F1F700C00000C7
:10042000CF910895CF93C82F60E081E00E944100F2
:100430006C2F661F6627661F86E00E944100C6FB80
:10044000662760F985E00E944100C5FB662760F9D8
:1004500084E00E944100C4FB662760F983E00E94AB
:10046000410061E082E00E9441008FEC97E001973B
:10047000F1F700C0000060E082E00E9441008FECD4
:1004800097E00197F1F700C00000C3FB662760F911
:1004900086E00E944100C2FB662760F985E00E9469
:1004A0004100C1FB662760F984E00E9441006C2F87
:1004B000617083E00E94410061E082E00E9441009F
:1004C0008FEC97E00197F1F700C0000060E082E058
:1004D0000E9441008FEC97E00197F1F700C0000007
:1004E000CF9108952FEB8AED90E02150804090400D
:1004F000E1F700C0000082E00E94120288E20E9440
:1005000012028CE00E94120281E00E9412028FEC23
:1005100097E00197F1F700C0000086E00C9412020A
:100520004F925F926F927F92AF92BF92CF92DF9283
:10053000EF92FF921F93CF93DF93CDB7DEB764970F
:100540000FB6F894DEBF0FBECDBF6B017C01611505
:1005500071058105910509F446C097FD5AC010E068
:100560009AE0492E512C612C712C01C0182FAA241D
:10057000A394B12CAC0EBD1EA10EB11CC701B601D7
:10058000A30192010E94B503605DF50160836901DA
:100590007A0181E0810FC114D104E104F10431F743
:1005A00017FD0DC0E1E0F0E0EC0FFD1FE10FF11DC4
:1005B00017FDFA9580810E94B201115098F7649658
:1005C0000FB6F894DEBF0FBECDBFDF91CF911F9164
:1005D000FF90EF90DF90CF90BF90AF907F906F90A3
:1005E0005F904F90089580E364960FB6F894DEBF55
:1005F0000FBECDBFDF91CF911F91FF90EF90DF90A5
:10060000CF90BF90AF907F906F905F904F900C9481
:10061000B201F094E094D094C094C11CD11CE11CB0
:10062000F11C8DE20E94B2019ACF0F931F93CF93DA
:10063000FC018081882359F08F01C0E00E94B20143
:10064000CF5FF801EC0FF11D80818111F7CFCF91C1
:100650001F910F910895882319F0813029F0089592
:1006600080E8860F0C94120280EC860F0C94120224
:10067000CF92DF92EF92FF92CF93DF9380E9C82E63
:10068000D12CE12CF12CCFE8D0E021C062E081E058
:100690000E942B03C701B6010E94900269E081E02D
:1006A0000E942B03688170E080E090E00E9490023D
:1006B0008FEC97E00197F1F700C000009FEFC91A97
:1006C000D90AE90AF90AC03688E0D80759F0CE01FC
:1006D00029912535D9F2DF91CF91FF90EF90DF90EE
:1006E000CF900895DF91CF91FF90EF90DF90CF9062
:1006F0000895CF93DF9300D0CDB7DEB7EFE8F0E0F9
:1007000085E58193E03628E0F207D9F70E94CA0018
:100710000E94720280E890E00E94150360E081E090
:100720000E942B0360E070E084E30E94A10185E059
:10073000898360E070E0CE0102960E94A9016A817F
:1007400070E080E090E00E94900261E082E10E940F
:1007500041008FEF91E12AE7815090402040E1F77E
:1007600000C000000E943803FFCF052E97FB1EF447
:1007700000940E94CC0357FD07D00E94D40307FCCD
:1007800003D04EF40C94CC035095409530952195B0
:100790003F4F4F4F5F4F08959095809570956195AD
:1007A0007F4F8F4F9F4F0895A1E21A2EAA1BBB1BAC
:1007B000FD010DC0AA1FBB1FEE1FFF1FA217B3072D
:1007C000E407F50720F0A21BB30BE40BF50B661F43
:1007D000771F881F991F1A9469F760957095809507
:1007E00090959B01AC01BD01CF010895F894FFCF16
:1007F00000000000000000000100000000000000F8
:1008000000000000000000000100020200000100E2
:0E081000454550524F4D20544553543A000078
:00000001FF
