S019000055415254206D696E692070726F6A6563742E73726563EB
S11300000C942A000C943F000C943F000C943F0085
S11300100C943F000C943F000C943F000C943F0060
S11300200C943F000C943F000C943F000C943F0050
S11300300C943F000C943F000C943F000C943F0040
S11300400C943F000C943F000C943F000C943F0030
S11300500C943F0011241FBECFE5D8E0DEBFCDBF16
S113006010E0A0E6B0E0E0ECF8E002C005900D92EC
S1130070AE3EB107D9F70E94AA030C945E040C9417
S11300800000982F9695969596958770613009F49F
S113009055C020F0623009F4A1C008959130C1F038
S11300A028F0923039F19330B9F108954AB321E040
S11300B030E0B90102C0660F771F8A95E2F7CB01E1
S11300C0942F982B9ABB9BB3809589238BBB08955F
S11300D047B321E030E0B90102C0660F771F8A956B
S11300E0E2F7CB01942F982B97BB98B38095892383
S11300F088BB089544B321E030E0B90102C0660F23
S1130100771F8A95E2F7CB01942F982B94BB95B374
S11301108095892385BB089541B321E030E0B9017E
S113012002C0660F771F8A95E2F7CB01942F982BB4
S113013091BB92B38095892382BB08959130C1F01D
S113014028F0923039F19330B9F108954AB321E09F
S113015030E0B90102C0660F771F8A95E2F7CB0140
S11301608095942F98239ABB9BB389238BBB0895C6
S113017047B321E030E0B90102C0660F771F8A95CA
S1130180E2F7CB018095942F982397BB98B38923EA
S113019088BB089544B321E030E0B90102C0660F82
S11301A0771F8A95E2F7CB018095942F982394BB0F
S11301B095B3892385BB089544B321E030E0B901A8
S11301C002C0660F771F8A95E2F7CB018095942FC2
S11301D0982394BB95B3892385BB08959130C1F0CE
S11301E028F0923039F19330B9F108954AB321E0FF
S11301F030E0B90102C0660F771F8A95E2F7CB01A0
S1130200962F909594239ABB9BB3892B8BBB08950F
S113021047B321E030E0B90102C0660F771F8A9529
S1130220E2F7CB01962F9095942397BB98B3892B33
S113023088BB089544B321E030E0B90102C0660FE1
S1130240771F8A95E2F7CB01962F9095942394BB60
S113025095B3892B85BB089541B321E030E0B90102
S113026002C0660F771F8A95E2F7CB01962F90950F
S1130270942391BB92B3892B82BB0895982F9695B2
S11302809695969587706130E1F5913099F028F054
S11302909230E9F0933041F108954BB321E030E01E
S11302A0B90102C0660F771F8A95E2F7CB01842B50
S11302B08BBB089548B321E030E0B90102C0660F5A
S11302C0771F8A95E2F7CB01842B88BB089545B349
S11302D021E030E0B90102C0660F771F8A95E2F78A
S11302E0CB01842B85BB089542B321E030E0B901F2
S11302F002C0660F771F8A95E2F7CB01842B82BB7D
S1130300089561113FC09130A1F028F09230F9F0C6
S1130310933059F108954BB321E030E0B90102C0A4
S1130320660F771F8A95E2F7CB01809584238BBBF8
S1130330089548B321E030E0B90102C0660F771F89
S11303408A95E2F7CB018095842388BB089545B351
S113035021E030E0B90102C0660F771F8A95E2F709
S1130360CB018095842385BB089542B321E030E01E
S1130370B90102C0660F771F8A95E2F7CB01809519
S1130380842382BB0895CF93C0E009C0EC2FF0E032
S1130390E253FF4F60818C2F0E944100CF5FC03237
S11303A0A8F3CF910895CF93C82F61E088E00E940D
S11303B03E016C2F661F6627661F87E00E943E0180
S11303C0C6FB662760F986E00E943E01C5FB6627EE
S11303D060F985E00E943E01C4FB662760F984E071
S11303E00E943E0161E089E00E943E018FEC97E0AB
S11303F00197F1F700C0000060E089E00E943E012F
S11304008FEC97E00197F1F700C00000C3FB66276B
S113041060F987E00E943E01C2FB662760F986E02E
S11304200E943E01C1FB662760F985E00E943E01FF
S11304306C2F617084E00E943E0161E089E00E94BB
S11304403E018FEC97E00197F1F700C0000060E0F7
S113045089E00E943E018FEC97E00197F1F700C01C
S11304600000CF910895CF93C82F60E088E00E94E8
S11304703E016C2F661F6627661F87E00E943E01BF
S1130480C6FB662760F986E00E943E01C5FB66272D
S113049060F985E00E943E01C4FB662760F984E0B0
S11304A00E943E0161E089E00E943E018FEC97E0EA
S11304B00197F1F700C0000060E089E00E943E016E
S11304C08FEC97E00197F1F700C00000C3FB6627AB
S11304D060F987E00E943E01C2FB662760F986E06E
S11304E00E943E01C1FB662760F985E00E943E013F
S11304F06C2F617084E00E943E0161E089E00E94FB
S11305003E018FEC97E00197F1F700C0000060E036
S113051089E00E943E018FEC97E00197F1F700C05B
S11305200000CF9108952FEB8AED90E02150804098
S11305309040E1F700C0000082E00E94330288E2AC
S11305400E9433028CE00E94330281E00E94330255
S11305508FEC97E00197F1F700C0000086E00E945D
S1130560330208950E94D3010895CF92DF92EF924F
S1130570FF921F93CF93DF93CDB7DEB764970FB687
S1130580F894DEBF0FBECDBF6B017C016115710510
S11305908105910521F480E30E94B2023BC09923B6
S11305A05CF4F094E094D094C094C11CD11CE11C80
S11305B0F11C8DE20E94B20210E015C0C701B60121
S11305C02AE030E040E050E00E941D04E1E0F0E069
S11305D0EC0FFD1FE10FF11D605D6083C22ED32E71
S11305E0E42EF52E1F5F1C141D041E041F0434F397
S11305F0FF24FA94F10E0CC0E1E0F0E0EC0FFD1FD3
S1130600EF0DF11DF7FCFA9580810E94B202FA9475
S1130610FF2094F764960FB6F894DEBF0FBECDBFEB
S1130620DF91CF911F91FF90EF90DF90CF900895CD
S11306308830910560F448B321E030E0B90102C08C
S1130640660F771F8A95E2F7CB01842B88BB089548
S11306508830910568F448B321E030E0B90102C064
S1130660660F771F8A95E2F7CB018095842388BBB8
S113067008958130910521F485B3806185BB089587
S1130680029719F485B3886085BB0895813091057C
S113069021F485B38F7E85BB0895029719F485B341
S11306A0877F85BB0895CF93DF93FC01DA01119610
S11306B01C921E9290E005C0EB01C20FD31F8883E9
S11306C09F5F292F30E0EF01C20FD31F8881803252
S11306D099F79F5F1AC06D917C9111979B01220F2E
S11306E0331F660F771F660F771F660F771F260F5E
S11306F0371F11963C932E938881280F311D205368
S1130700310911963C932E939F5FEF01C90FD11DC0
S113071088818111E0CFDF91CF910895DC0140E021
S113072007C0FB01E20FF31F2081921311C04F5F3A
S1130730242F30E0FD01E20FF31F90819111F1CFDE
S1130740FB01E20FF31F80818111EBCF81E008955B
S113075080E00895CF93DF93CDB7DEB7AA970FB6A5
S1130760F894DEBF0FBECDBF0E94C3010E94EC030C
S11307700E94930210E0CE0101960E94FC03AE0198
S1130780475D5F4FBE016B5E7F4FCE0101960E94B5
S113079053031FC0E12EF12C86E18E9DB0018F9D85
S11307A0700D1124605A7F4FCE0145960E948E032E
S11307B0882371F086E18E9DF0018F9DF00D112448
S11307C0E05AFF4F0488F589E02D89A59AA509957B
S11307D01F5F1530F8F2CFCF83E389B98BB18D7FDA
S11307E08BB98AB188608AB98AB180618AB908955F
S11307F05F9BFECF8CB10895EF92FF920F931F93EE
S1130800CF938C010E94F803F8018083C0E008C0F4
S1130810CF5F7801EC0EF11C0E94F803F70180838E
S1130820F801EC0FF11D80818D3091F71082CF918A
S11308301F910F91FF90EF900895052E97FB1EF4E2
S113084000940E94340457FD07D00E943C0407FC26
S113085003D04EF40C943404509540953095219572
S11308603F4F4F4F5F4F08959095809570956195D8
S11308707F4F8F4F9F4F0895A1E21A2EAA1BBB1BD7
S1130880FD010DC0AA1FBB1FEE1FFF1FA217B30758
S1130890E407F50720F0A21BB30BE40BF50B661F6E
S11308A0771F881F991F1A9469F760957095809532
S11308B090959B01AC01BD01CF010895F894FFCF41
S11308C04C65644F6E000000000000000000000052
S11308D00000000018034C65644F666600000000C9
S11308E000000000000000000000280352656C6155
S11308F0794F6E00000000000000000000000000BE
S1130900390352656C61794F66660000000000008F
S113091000000000000046034C434477726974658C
S1130920000000000000000000000000B50200000C
S113093000000000000000000000000000000000B3
S111094000000000000001000202000001009F
S9030000FC
